{
  "abi": [
    {
      "inputs": [],
      "stateMutability": "nonpayable",
      "type": "constructor"
    },
    {
      "inputs": [],
      "name": "ALEADY_MINTED",
      "type": "error"
    },
    {
      "inputs": [],
      "name": "APPROVAL_TO_CURRENT_OWNER",
      "type": "error"
    },
    {
      "inputs": [],
      "name": "APPROVE_TO_CALLER",
      "type": "error"
    },
    {
      "inputs": [],
      "name": "CALLER_NOT_OWNER_OR_APPROVED",
      "type": "error"
    },
    {
      "inputs": [],
      "name": "INCORRECT_OWNER",
      "type": "error"
    },
    {
      "inputs": [],
      "name": "INVALID_PAYMENT_EVENT",
      "type": "error"
    },
    {
      "inputs": [],
      "name": "INVALID_REDEMPTION_EVENT",
      "type": "error"
    },
    {
      "inputs": [],
      "name": "INVALID_REDEMPTION_METADATA",
      "type": "error"
    },
    {
      "inputs": [],
      "name": "INVALID_TOKEN_ID",
      "type": "error"
    },
    {
      "inputs": [],
      "name": "MINT_TO_ZERO",
      "type": "error"
    },
    {
      "inputs": [
        {
          "internalType": "uint256",
          "name": "prod1",
          "type": "uint256"
        },
        {
          "internalType": "uint256",
          "name": "denominator",
          "type": "uint256"
        }
      ],
      "name": "PRBMath__MulDivOverflow",
      "type": "error"
    },
    {
      "inputs": [],
      "name": "TRANSFER_TO_NON_IMPLEMENTER",
      "type": "error"
    },
    {
      "inputs": [],
      "name": "TRANSFER_TO_ZERO_ADDRESS",
      "type": "error"
    },
    {
      "inputs": [],
      "name": "UNAUTHORIZED",
      "type": "error"
    },
    {
      "inputs": [],
      "name": "UNEXPECTED_TOKEN_REDEEMED",
      "type": "error"
    },
    {
      "anonymous": false,
      "inputs": [
        {
          "indexed": true,
          "internalType": "address",
          "name": "owner",
          "type": "address"
        },
        {
          "indexed": true,
          "internalType": "address",
          "name": "approved",
          "type": "address"
        },
        {
          "indexed": true,
          "internalType": "uint256",
          "name": "tokenId",
          "type": "uint256"
        }
      ],
      "name": "Approval",
      "type": "event"
    },
    {
      "anonymous": false,
      "inputs": [
        {
          "indexed": true,
          "internalType": "address",
          "name": "owner",
          "type": "address"
        },
        {
          "indexed": true,
          "internalType": "address",
          "name": "operator",
          "type": "address"
        },
        {
          "indexed": false,
          "internalType": "bool",
          "name": "approved",
          "type": "bool"
        }
      ],
      "name": "ApprovalForAll",
      "type": "event"
    },
    {
      "anonymous": false,
      "inputs": [
        {
          "indexed": true,
          "internalType": "address",
          "name": "from",
          "type": "address"
        },
        {
          "indexed": true,
          "internalType": "address",
          "name": "to",
          "type": "address"
        },
        {
          "indexed": true,
          "internalType": "uint256",
          "name": "tokenId",
          "type": "uint256"
        }
      ],
      "name": "Transfer",
      "type": "event"
    },
    {
      "inputs": [
        {
          "internalType": "address",
          "name": "to",
          "type": "address"
        },
        {
          "internalType": "uint256",
          "name": "tokenId",
          "type": "uint256"
        }
      ],
      "name": "approve",
      "outputs": [],
      "stateMutability": "nonpayable",
      "type": "function"
    },
    {
      "inputs": [
        {
          "internalType": "address",
          "name": "owner",
          "type": "address"
        }
      ],
      "name": "balanceOf",
      "outputs": [
        {
          "internalType": "uint256",
          "name": "balance",
          "type": "uint256"
        }
      ],
      "stateMutability": "view",
      "type": "function"
    },
    {
      "inputs": [],
      "name": "codeOrigin",
      "outputs": [
        {
          "internalType": "address",
          "name": "",
          "type": "address"
        }
      ],
      "stateMutability": "view",
      "type": "function"
    },
    {
      "inputs": [
        {
          "components": [
            {
              "internalType": "address",
              "name": "payer",
              "type": "address"
            },
            {
              "internalType": "uint256",
              "name": "projectId",
              "type": "uint256"
            },
            {
              "internalType": "uint256",
              "name": "currentFundingCycleConfiguration",
              "type": "uint256"
            },
            {
              "components": [
                {
                  "internalType": "address",
                  "name": "token",
                  "type": "address"
                },
                {
                  "internalType": "uint256",
                  "name": "value",
                  "type": "uint256"
                },
                {
                  "internalType": "uint256",
                  "name": "decimals",
                  "type": "uint256"
                },
                {
                  "internalType": "uint256",
                  "name": "currency",
                  "type": "uint256"
                }
              ],
              "internalType": "struct JBTokenAmount",
              "name": "amount",
              "type": "tuple"
            },
            {
              "components": [
                {
                  "internalType": "address",
                  "name": "token",
                  "type": "address"
                },
                {
                  "internalType": "uint256",
                  "name": "value",
                  "type": "uint256"
                },
                {
                  "internalType": "uint256",
                  "name": "decimals",
                  "type": "uint256"
                },
                {
                  "internalType": "uint256",
                  "name": "currency",
                  "type": "uint256"
                }
              ],
              "internalType": "struct JBTokenAmount",
              "name": "forwardedAmount",
              "type": "tuple"
            },
            {
              "internalType": "uint256",
              "name": "projectTokenCount",
              "type": "uint256"
            },
            {
              "internalType": "address",
              "name": "beneficiary",
              "type": "address"
            },
            {
              "internalType": "bool",
              "name": "preferClaimedTokens",
              "type": "bool"
            },
            {
              "internalType": "string",
              "name": "memo",
              "type": "string"
            },
            {
              "internalType": "bytes",
              "name": "metadata",
              "type": "bytes"
            }
          ],
          "internalType": "struct JBDidPayData",
          "name": "_data",
          "type": "tuple"
        }
      ],
      "name": "didPay",
      "outputs": [],
      "stateMutability": "payable",
      "type": "function"
    },
    {
      "inputs": [
        {
          "components": [
            {
              "internalType": "address",
              "name": "holder",
              "type": "address"
            },
            {
              "internalType": "uint256",
              "name": "projectId",
              "type": "uint256"
            },
            {
              "internalType": "uint256",
              "name": "currentFundingCycleConfiguration",
              "type": "uint256"
            },
            {
              "internalType": "uint256",
              "name": "projectTokenCount",
              "type": "uint256"
            },
            {
              "components": [
                {
                  "internalType": "address",
                  "name": "token",
                  "type": "address"
                },
                {
                  "internalType": "uint256",
                  "name": "value",
                  "type": "uint256"
                },
                {
                  "internalType": "uint256",
                  "name": "decimals",
                  "type": "uint256"
                },
                {
                  "internalType": "uint256",
                  "name": "currency",
                  "type": "uint256"
                }
              ],
              "internalType": "struct JBTokenAmount",
              "name": "reclaimedAmount",
              "type": "tuple"
            },
            {
              "components": [
                {
                  "internalType": "address",
                  "name": "token",
                  "type": "address"
                },
                {
                  "internalType": "uint256",
                  "name": "value",
                  "type": "uint256"
                },
                {
                  "internalType": "uint256",
                  "name": "decimals",
                  "type": "uint256"
                },
                {
                  "internalType": "uint256",
                  "name": "currency",
                  "type": "uint256"
                }
              ],
              "internalType": "struct JBTokenAmount",
              "name": "forwardedAmount",
              "type": "tuple"
            },
            {
              "internalType": "address payable",
              "name": "beneficiary",
              "type": "address"
            },
            {
              "internalType": "string",
              "name": "memo",
              "type": "string"
            },
            {
              "internalType": "bytes",
              "name": "metadata",
              "type": "bytes"
            }
          ],
          "internalType": "struct JBDidRedeemData",
          "name": "_data",
          "type": "tuple"
        }
      ],
      "name": "didRedeem",
      "outputs": [],
      "stateMutability": "payable",
      "type": "function"
    },
    {
      "inputs": [],
      "name": "directory",
      "outputs": [
        {
          "internalType": "contract IJBDirectory",
          "name": "",
          "type": "address"
        }
      ],
      "stateMutability": "view",
      "type": "function"
    },
    {
      "inputs": [
        {
          "internalType": "uint256",
          "name": "tokenId",
          "type": "uint256"
        }
      ],
      "name": "getApproved",
      "outputs": [
        {
          "internalType": "address",
          "name": "",
          "type": "address"
        }
      ],
      "stateMutability": "view",
      "type": "function"
    },
    {
      "inputs": [
        {
          "internalType": "address",
          "name": "owner",
          "type": "address"
        },
        {
          "internalType": "address",
          "name": "operator",
          "type": "address"
        }
      ],
      "name": "isApprovedForAll",
      "outputs": [
        {
          "internalType": "bool",
          "name": "",
          "type": "bool"
        }
      ],
      "stateMutability": "view",
      "type": "function"
    },
    {
      "inputs": [],
      "name": "name",
      "outputs": [
        {
          "internalType": "string",
          "name": "",
          "type": "string"
        }
      ],
      "stateMutability": "view",
      "type": "function"
    },
    {
      "inputs": [
        {
          "internalType": "uint256",
          "name": "tokenId",
          "type": "uint256"
        }
      ],
      "name": "ownerOf",
      "outputs": [
        {
          "internalType": "address",
          "name": "",
          "type": "address"
        }
      ],
      "stateMutability": "view",
      "type": "function"
    },
    {
      "inputs": [
        {
          "components": [
            {
              "internalType": "contract IJBPaymentTerminal",
              "name": "terminal",
              "type": "address"
            },
            {
              "internalType": "address",
              "name": "payer",
              "type": "address"
            },
            {
              "components": [
                {
                  "internalType": "address",
                  "name": "token",
                  "type": "address"
                },
                {
                  "internalType": "uint256",
                  "name": "value",
                  "type": "uint256"
                },
                {
                  "internalType": "uint256",
                  "name": "decimals",
                  "type": "uint256"
                },
                {
                  "internalType": "uint256",
                  "name": "currency",
                  "type": "uint256"
                }
              ],
              "internalType": "struct JBTokenAmount",
              "name": "amount",
              "type": "tuple"
            },
            {
              "internalType": "uint256",
              "name": "projectId",
              "type": "uint256"
            },
            {
              "internalType": "uint256",
              "name": "currentFundingCycleConfiguration",
              "type": "uint256"
            },
            {
              "internalType": "address",
              "name": "beneficiary",
              "type": "address"
            },
            {
              "internalType": "uint256",
              "name": "weight",
              "type": "uint256"
            },
            {
              "internalType": "uint256",
              "name": "reservedRate",
              "type": "uint256"
            },
            {
              "internalType": "string",
              "name": "memo",
              "type": "string"
            },
            {
              "internalType": "bytes",
              "name": "metadata",
              "type": "bytes"
            }
          ],
          "internalType": "struct JBPayParamsData",
          "name": "_data",
          "type": "tuple"
        }
      ],
      "name": "payParams",
      "outputs": [
        {
          "internalType": "uint256",
          "name": "weight",
          "type": "uint256"
        },
        {
          "internalType": "string",
          "name": "memo",
          "type": "string"
        },
        {
          "components": [
            {
              "internalType": "contract IJBPayDelegate",
              "name": "delegate",
              "type": "address"
            },
            {
              "internalType": "uint256",
              "name": "amount",
              "type": "uint256"
            }
          ],
          "internalType": "struct JBPayDelegateAllocation[]",
          "name": "delegateAllocations",
          "type": "tuple[]"
        }
      ],
      "stateMutability": "view",
      "type": "function"
    },
    {
      "inputs": [],
      "name": "projectId",
      "outputs": [
        {
          "internalType": "uint256",
          "name": "",
          "type": "uint256"
        }
      ],
      "stateMutability": "view",
      "type": "function"
    },
    {
      "inputs": [
        {
          "components": [
            {
              "internalType": "contract IJBPaymentTerminal",
              "name": "terminal",
              "type": "address"
            },
            {
              "internalType": "address",
              "name": "holder",
              "type": "address"
            },
            {
              "internalType": "uint256",
              "name": "projectId",
              "type": "uint256"
            },
            {
              "internalType": "uint256",
              "name": "currentFundingCycleConfiguration",
              "type": "uint256"
            },
            {
              "internalType": "uint256",
              "name": "tokenCount",
              "type": "uint256"
            },
            {
              "internalType": "uint256",
              "name": "totalSupply",
              "type": "uint256"
            },
            {
              "internalType": "uint256",
              "name": "overflow",
              "type": "uint256"
            },
            {
              "components": [
                {
                  "internalType": "address",
                  "name": "token",
                  "type": "address"
                },
                {
                  "internalType": "uint256",
                  "name": "value",
                  "type": "uint256"
                },
                {
                  "internalType": "uint256",
                  "name": "decimals",
                  "type": "uint256"
                },
                {
                  "internalType": "uint256",
                  "name": "currency",
                  "type": "uint256"
                }
              ],
              "internalType": "struct JBTokenAmount",
              "name": "reclaimAmount",
              "type": "tuple"
            },
            {
              "internalType": "bool",
              "name": "useTotalOverflow",
              "type": "bool"
            },
            {
              "internalType": "uint256",
              "name": "redemptionRate",
              "type": "uint256"
            },
            {
              "internalType": "string",
              "name": "memo",
              "type": "string"
            },
            {
              "internalType": "bytes",
              "name": "metadata",
              "type": "bytes"
            }
          ],
          "internalType": "struct JBRedeemParamsData",
          "name": "_data",
          "type": "tuple"
        }
      ],
      "name": "redeemParams",
      "outputs": [
        {
          "internalType": "uint256",
          "name": "reclaimAmount",
          "type": "uint256"
        },
        {
          "internalType": "string",
          "name": "memo",
          "type": "string"
        },
        {
          "components": [
            {
              "internalType": "contract IJBRedemptionDelegate",
              "name": "delegate",
              "type": "address"
            },
            {
              "internalType": "uint256",
              "name": "amount",
              "type": "uint256"
            }
          ],
          "internalType": "struct JBRedemptionDelegateAllocation[]",
          "name": "delegateAllocations",
          "type": "tuple[]"
        }
      ],
      "stateMutability": "view",
      "type": "function"
    },
    {
      "inputs": [
        {
          "internalType": "uint256[]",
          "name": "_tokenIds",
          "type": "uint256[]"
        },
        {
          "components": [
            {
              "internalType": "contract IJBPaymentTerminal",
              "name": "terminal",
              "type": "address"
            },
            {
              "internalType": "address",
              "name": "holder",
              "type": "address"
            },
            {
              "internalType": "uint256",
              "name": "projectId",
              "type": "uint256"
            },
            {
              "internalType": "uint256",
              "name": "currentFundingCycleConfiguration",
              "type": "uint256"
            },
            {
              "internalType": "uint256",
              "name": "tokenCount",
              "type": "uint256"
            },
            {
              "internalType": "uint256",
              "name": "totalSupply",
              "type": "uint256"
            },
            {
              "internalType": "uint256",
              "name": "overflow",
              "type": "uint256"
            },
            {
              "components": [
                {
                  "internalType": "address",
                  "name": "token",
                  "type": "address"
                },
                {
                  "internalType": "uint256",
                  "name": "value",
                  "type": "uint256"
                },
                {
                  "internalType": "uint256",
                  "name": "decimals",
                  "type": "uint256"
                },
                {
                  "internalType": "uint256",
                  "name": "currency",
                  "type": "uint256"
                }
              ],
              "internalType": "struct JBTokenAmount",
              "name": "reclaimAmount",
              "type": "tuple"
            },
            {
              "internalType": "bool",
              "name": "useTotalOverflow",
              "type": "bool"
            },
            {
              "internalType": "uint256",
              "name": "redemptionRate",
              "type": "uint256"
            },
            {
              "internalType": "string",
              "name": "memo",
              "type": "string"
            },
            {
              "internalType": "bytes",
              "name": "metadata",
              "type": "bytes"
            }
          ],
          "internalType": "struct JBRedeemParamsData",
          "name": "_data",
          "type": "tuple"
        }
      ],
      "name": "redemptionWeightOf",
      "outputs": [
        {
          "internalType": "uint256",
          "name": "",
          "type": "uint256"
        }
      ],
      "stateMutability": "view",
      "type": "function"
    },
    {
      "inputs": [
        {
          "internalType": "address",
          "name": "from",
          "type": "address"
        },
        {
          "internalType": "address",
          "name": "to",
          "type": "address"
        },
        {
          "internalType": "uint256",
          "name": "tokenId",
          "type": "uint256"
        }
      ],
      "name": "safeTransferFrom",
      "outputs": [],
      "stateMutability": "nonpayable",
      "type": "function"
    },
    {
      "inputs": [
        {
          "internalType": "address",
          "name": "from",
          "type": "address"
        },
        {
          "internalType": "address",
          "name": "to",
          "type": "address"
        },
        {
          "internalType": "uint256",
          "name": "tokenId",
          "type": "uint256"
        },
        {
          "internalType": "bytes",
          "name": "data",
          "type": "bytes"
        }
      ],
      "name": "safeTransferFrom",
      "outputs": [],
      "stateMutability": "nonpayable",
      "type": "function"
    },
    {
      "inputs": [
        {
          "internalType": "address",
          "name": "operator",
          "type": "address"
        },
        {
          "internalType": "bool",
          "name": "approved",
          "type": "bool"
        }
      ],
      "name": "setApprovalForAll",
      "outputs": [],
      "stateMutability": "nonpayable",
      "type": "function"
    },
    {
      "inputs": [],
      "name": "store",
      "outputs": [
        {
          "internalType": "contract IJBTiered721StakingDelegateStore",
          "name": "",
          "type": "address"
        }
      ],
      "stateMutability": "view",
      "type": "function"
    },
    {
      "inputs": [
        {
          "internalType": "bytes4",
          "name": "_interfaceId",
          "type": "bytes4"
        }
      ],
      "name": "supportsInterface",
      "outputs": [
        {
          "internalType": "bool",
          "name": "",
          "type": "bool"
        }
      ],
      "stateMutability": "view",
      "type": "function"
    },
    {
      "inputs": [],
      "name": "symbol",
      "outputs": [
        {
          "internalType": "string",
          "name": "",
          "type": "string"
        }
      ],
      "stateMutability": "view",
      "type": "function"
    },
    {
      "inputs": [
        {
          "internalType": "uint256",
          "name": "tokenId",
          "type": "uint256"
        }
      ],
      "name": "tokenURI",
      "outputs": [
        {
          "internalType": "string",
          "name": "",
          "type": "string"
        }
      ],
      "stateMutability": "view",
      "type": "function"
    },
    {
      "inputs": [
        {
          "components": [
            {
              "internalType": "contract IJBPaymentTerminal",
              "name": "terminal",
              "type": "address"
            },
            {
              "internalType": "address",
              "name": "holder",
              "type": "address"
            },
            {
              "internalType": "uint256",
              "name": "projectId",
              "type": "uint256"
            },
            {
              "internalType": "uint256",
              "name": "currentFundingCycleConfiguration",
              "type": "uint256"
            },
            {
              "internalType": "uint256",
              "name": "tokenCount",
              "type": "uint256"
            },
            {
              "internalType": "uint256",
              "name": "totalSupply",
              "type": "uint256"
            },
            {
              "internalType": "uint256",
              "name": "overflow",
              "type": "uint256"
            },
            {
              "components": [
                {
                  "internalType": "address",
                  "name": "token",
                  "type": "address"
                },
                {
                  "internalType": "uint256",
                  "name": "value",
                  "type": "uint256"
                },
                {
                  "internalType": "uint256",
                  "name": "decimals",
                  "type": "uint256"
                },
                {
                  "internalType": "uint256",
                  "name": "currency",
                  "type": "uint256"
                }
              ],
              "internalType": "struct JBTokenAmount",
              "name": "reclaimAmount",
              "type": "tuple"
            },
            {
              "internalType": "bool",
              "name": "useTotalOverflow",
              "type": "bool"
            },
            {
              "internalType": "uint256",
              "name": "redemptionRate",
              "type": "uint256"
            },
            {
              "internalType": "string",
              "name": "memo",
              "type": "string"
            },
            {
              "internalType": "bytes",
              "name": "metadata",
              "type": "bytes"
            }
          ],
          "internalType": "struct JBRedeemParamsData",
          "name": "_data",
          "type": "tuple"
        }
      ],
      "name": "totalRedemptionWeight",
      "outputs": [
        {
          "internalType": "uint256",
          "name": "",
          "type": "uint256"
        }
      ],
      "stateMutability": "view",
      "type": "function"
    },
    {
      "inputs": [
        {
          "internalType": "address",
          "name": "from",
          "type": "address"
        },
        {
          "internalType": "address",
          "name": "to",
          "type": "address"
        },
        {
          "internalType": "uint256",
          "name": "tokenId",
          "type": "uint256"
        }
      ],
      "name": "transferFrom",
      "outputs": [],
      "stateMutability": "nonpayable",
      "type": "function"
    }
  ],
  "bytecode": {
    "object": "0x608060405234801561001057600080fd5b50600780546001600160a01b03191630179055611b9b806100326000396000f3fe6080604052600436106101405760003560e01c80637ba62bf9116100b6578063b88d4fde1161006f578063b88d4fde14610390578063c41c2f24146103b0578063c87b56dd146103d0578063d46cf171146103f0578063da9ee8b714610410578063e985e9c51461042357600080fd5b80637ba62bf9146102ce5780639494bf72146102f157806395d89b411461030c578063975057e714610321578063a22cb46514610341578063a51cfd181461036157600080fd5b806323b872dd1161010857806323b872dd146102165780632b13c58f146102365780633fafa1271461024957806342842e0e1461026d5780636352211e1461028d57806370a08231146102ad57600080fd5b806301ffc9a71461014557806306fdde031461017a578063081812fc1461019c578063095ea7b3146101d45780631d153ca4146101f6575b600080fd5b34801561015157600080fd5b50610165610160366004611451565b61046c565b60405190151581526020015b60405180910390f35b34801561018657600080fd5b5061018f6104b2565b60405161017191906114be565b3480156101a857600080fd5b506101bc6101b73660046114d1565b610544565b6040516001600160a01b039091168152602001610171565b3480156101e057600080fd5b506101f46101ef366004611506565b61056b565b005b34801561020257600080fd5b506007546101bc906001600160a01b031681565b34801561022257600080fd5b506101f4610231366004611530565b6105f7565b6101f4610244366004611585565b610629565b34801561025557600080fd5b5061025f60055481565b604051908152602001610171565b34801561027957600080fd5b506101f4610288366004611530565b610801565b34801561029957600080fd5b506101bc6102a83660046114d1565b61081c565b3480156102b957600080fd5b5061025f6102c83660046115ba565b50600090565b3480156102da57600080fd5b5061025f6102e936600461169c565b600092915050565b3480156102fd57600080fd5b5061025f6102c8366004611585565b34801561031857600080fd5b5061018f610852565b34801561032d57600080fd5b506008546101bc906001600160a01b031681565b34801561034d57600080fd5b506101f461035c36600461170e565b610861565b34801561036d57600080fd5b5061038161037c366004611585565b610870565b60405161017193929190611745565b34801561039c57600080fd5b506101f46103ab3660046117b7565b610ab8565b3480156103bc57600080fd5b506006546101bc906001600160a01b031681565b3480156103dc57600080fd5b5061018f6103eb3660046114d1565b610aeb565b3480156103fc57600080fd5b5061038161040b366004611877565b610b5f565b6101f461041e3660046118b3565b610c42565b34801561042f57600080fd5b5061016561043e3660046118ef565b6001600160a01b03918216600090815260046020908152604080832093909416825291909152205460ff1690565b60006001600160e01b03198216638a456b4360e01b148061049d57506001600160e01b0319821663152a902d60e11b145b806104ac57506104ac82610cf0565b92915050565b6060600080546104c190611922565b80601f01602080910402602001604051908101604052809291908181526020018280546104ed90611922565b801561053a5780601f1061050f5761010080835404028352916020019161053a565b820191906000526020600020905b81548152906001019060200180831161051d57829003601f168201915b5050505050905090565b600061054f82610d81565b506000908152600360205260409020546001600160a01b031690565b60006105768261081c565b9050806001600160a01b0316836001600160a01b0316036105aa5760405163133f8be960e01b815260040160405180910390fd5b336001600160a01b038216148015906105ca57506105c8813361043e565b155b156105e85760405163e5fa0e3560e01b815260040160405180910390fd5b6105f28383610db9565b505050565b6106013382610e27565b61061e5760405163e5fa0e3560e01b815260040160405180910390fd5b6105f2838383610ea6565b341515806106ab5750600654600554604051636e49181f60e01b815260048101919091523360248201526001600160a01b0390911690636e49181f90604401602060405180830381865afa158015610685573d6000803e3d6000fd5b505050506040513d601f19601f820116820180604052508101906106a99190611956565b155b806106bc5750600554816020013514155b156106da57604051633efca5c360e11b815260040160405180910390fd5b60246106ea6101c0830183611973565b9050108061072e575063fbb38e0360e01b6107096101c0830183611973565b610718916024916020916119c1565b610721916119eb565b6001600160e01b03191614155b1561074c57604051632a84050f60e01b815260040160405180910390fd5b600061075c6101c0830183611973565b8101906107699190611a1b565b925050506000815190506000805b828110156107f95783818151811061079157610791611a74565b602002602001015191508460000160208101906107ae91906115ba565b6000838152600260205260409020546001600160a01b039081169116146107e85760405163075fd2b160e01b815260040160405180910390fd5b6107f182610f6e565b600101610777565b505b50505050565b6105f283838360405180602001604052806000815250610ab8565b6000818152600260205260408120546001600160a01b0316806104ac5760405163b49aa3b560e01b815260040160405180910390fd5b6060600180546104c190611922565b61086c338383610fdb565b5050565b6000606080608084013515610898576040516309f82f1b60e31b815260040160405180910390fd5b60246108a86101c0860186611973565b905010806108ec575063fbb38e0360e01b6108c76101c0860186611973565b6108d6916024916020916119c1565b6108df916119eb565b6001600160e01b03191614155b1561090a57604051632a84050f60e01b815260040160405180910390fd5b60408051600180825281830190925290816020015b604080518082019091526000808252602082015281526020019060019003908161091f5790505090506040518060400160405280306001600160a01b0316815260200160008152508160008151811061097a5761097a611a74565b602090810291909101015260006109956101c0860186611973565b8101906109a29190611a1b565b925060009150819050806109bb60c0890135828061107a565b905061271088610180013503610a2657806109da6101a08a018a611973565b8782828080601f016020809104026020016040519081016040528093929190818152602001838380828437600092019190915250969d50919b50919950610ab198505050505050505050565b610a5c81610a4585610a3f6101808d0135612710611aa0565b8661107a565b610a54906101808c0135611ab3565b61271061107a565b610a6a6101a08a018a611973565b8782828080601f016020809104026020016040519081016040528093929190818152602001838380828437600092019190915250969d50919b509199505050505050505050505b9193909250565b610ac23383610e27565b610adf5760405163e5fa0e3560e01b815260040160405180910390fd5b6107fb8484848461114a565b6060610af682610d81565b6000610b0d60408051602081019091526000815290565b90506000815111610b2d5760405180602001604052806000815250610b58565b80610b378461117e565b604051602001610b48929190611ac6565b6040516020818303038152906040525b9392505050565b610120810135606080610b76610160850185611973565b8080601f01602080910402602001604051908101604052809392919081815260200183838082843760009201919091525092945060019250610bb6915050565b604051908082528060200260200182016040528015610bfb57816020015b6040805180820190915260008082526020820152815260200190600190039081610bd45790505b5090506040518060400160405280306001600160a01b03168152602001600081525081600081518110610c3057610c30611a74565b60200260200101819052509193909250565b60055434151580610cc35750600654604051636e49181f60e01b8152600481018390523360248201526001600160a01b0390911690636e49181f90604401602060405180830381865afa158015610c9d573d6000803e3d6000fd5b505050506040513d601f19601f82011682018060405250810190610cc19190611956565b155b80610cd2575080826020013514155b1561086c576040516331c57b1b60e21b815260040160405180910390fd5b60006001600160e01b0319821663fbb38e0360e01b1480610d2157506001600160e01b031982166371700c6960e01b145b80610d3c57506001600160e01b0319821663da9ee8b760e01b145b80610d5757506001600160e01b03198216632b13c58f60e01b145b80610d7257506001600160e01b0319821663152a902d60e11b145b806104ac57506104ac82611211565b6000818152600260205260409020546001600160a01b0316610db65760405163b49aa3b560e01b815260040160405180910390fd5b50565b600081815260036020526040902080546001600160a01b0319166001600160a01b0384169081179091558190610dee8261081c565b6001600160a01b03167f8c5be1e5ebec7d5bd14f71427d1e84f3dd0314c0f7b2291e5b200ac8c7c3b92560405160405180910390a45050565b600080610e338361081c565b9050806001600160a01b0316846001600160a01b03161480610e7a57506001600160a01b0380821660009081526004602090815260408083209388168352929052205460ff165b80610e9e5750836001600160a01b0316610e9384610544565b6001600160a01b0316145b949350505050565b826001600160a01b0316610eb98261081c565b6001600160a01b031614610ee05760405163a195bc5360e01b815260040160405180910390fd5b6001600160a01b038216610f0757604051632c95542760e01b815260040160405180910390fd5b610f12600082610db9565b60008181526002602052604080822080546001600160a01b0319166001600160a01b0386811691821790925591518493918716917fddf252ad1be2c89b69c2b068fc378daa952ba7f163c4a11628f55a4df523b3ef91a4505050565b6000610f798261081c565b9050610f86600083610db9565b60008281526002602052604080822080546001600160a01b0319169055518391906001600160a01b038416907fddf252ad1be2c89b69c2b068fc378daa952ba7f163c4a11628f55a4df523b3ef908390a45050565b816001600160a01b0316836001600160a01b03160361100d576040516306f8139d60e11b815260040160405180910390fd5b6001600160a01b03838116600081815260046020908152604080832094871680845294825291829020805460ff191686151590811790915591519182527f17307eab39ab6107e8899845ad3d59bd9653f200f220920489ca2b5937696c31910160405180910390a3505050565b60008080600019858709858702925082811083820303915050806000036110b4578382816110aa576110aa611af5565b0492505050610b58565b8381106110e257604051631dcf306360e21b8152600481018290526024810185905260440160405180910390fd5b600084868809600260036001881981018916988990049182028318808302840302808302840302808302840302808302840302808302840302918202909203026000889003889004909101858311909403939093029303949094049190911702949350505050565b611155848484610ea6565b61116184848484611261565b6107fb576040516336f57c1b60e11b815260040160405180910390fd5b6060600061118b83611363565b600101905060008167ffffffffffffffff8111156111ab576111ab6115d5565b6040519080825280601f01601f1916602001820160405280156111d5576020820181803683370190505b5090508181016020015b600019016f181899199a1a9b1b9c1cb0b131b232b360811b600a86061a8153600a85049450846111df57509392505050565b60006001600160e01b031982166380ac58cd60e01b148061124257506001600160e01b03198216635b5e139f60e01b145b806104ac57506301ffc9a760e01b6001600160e01b03198316146104ac565b60006001600160a01b0384163b1561135857604051630a85bd0160e11b81526001600160a01b0385169063150b7a02906112a5903390899088908890600401611b0b565b6020604051808303816000875af19250505080156112e0575060408051601f3d908101601f191682019092526112dd91810190611b48565b60015b61133e573d80801561130e576040519150601f19603f3d011682016040523d82523d6000602084013e611313565b606091505b508051600003611336576040516336f57c1b60e11b815260040160405180910390fd5b805181602001fd5b6001600160e01b031916630a85bd0160e11b149050610e9e565b506001949350505050565b60008072184f03e93ff9f4daa797ed6e38ed64bf6a1f0160401b83106113a25772184f03e93ff9f4daa797ed6e38ed64bf6a1f0160401b830492506040015b6d04ee2d6d415b85acef810000000083106113ce576d04ee2d6d415b85acef8100000000830492506020015b662386f26fc1000083106113ec57662386f26fc10000830492506010015b6305f5e1008310611404576305f5e100830492506008015b612710831061141857612710830492506004015b6064831061142a576064830492506002015b600a83106104ac5760010192915050565b6001600160e01b031981168114610db657600080fd5b60006020828403121561146357600080fd5b8135610b588161143b565b60005b83811015611489578181015183820152602001611471565b50506000910152565b600081518084526114aa81602086016020860161146e565b601f01601f19169290920160200192915050565b602081526000610b586020830184611492565b6000602082840312156114e357600080fd5b5035919050565b80356001600160a01b038116811461150157600080fd5b919050565b6000806040838503121561151957600080fd5b611522836114ea565b946020939093013593505050565b60008060006060848603121561154557600080fd5b61154e846114ea565b925061155c602085016114ea565b9150604084013590509250925092565b60006101e0828403121561157f57600080fd5b50919050565b60006020828403121561159757600080fd5b813567ffffffffffffffff8111156115ae57600080fd5b610e9e8482850161156c565b6000602082840312156115cc57600080fd5b610b58826114ea565b634e487b7160e01b600052604160045260246000fd5b604051601f8201601f1916810167ffffffffffffffff81118282101715611614576116146115d5565b604052919050565b600082601f83011261162d57600080fd5b8135602067ffffffffffffffff821115611649576116496115d5565b8160051b6116588282016115eb565b928352848101820192828101908785111561167257600080fd5b83870192505b8483101561169157823582529183019190830190611678565b979650505050505050565b600080604083850312156116af57600080fd5b823567ffffffffffffffff808211156116c757600080fd5b6116d38683870161161c565b935060208501359150808211156116e957600080fd5b506116f68582860161156c565b9150509250929050565b8015158114610db657600080fd5b6000806040838503121561172157600080fd5b61172a836114ea565b9150602083013561173a81611700565b809150509250929050565b8381526000602060608184015261175f6060840186611492565b83810360408581019190915285518083528387019284019060005b818110156117a857845180516001600160a01b0316845286015186840152938501939183019160010161177a565b50909998505050505050505050565b600080600080608085870312156117cd57600080fd5b6117d6856114ea565b935060206117e58187016114ea565b935060408601359250606086013567ffffffffffffffff8082111561180957600080fd5b818801915088601f83011261181d57600080fd5b81358181111561182f5761182f6115d5565b611841601f8201601f191685016115eb565b9150808252898482850101111561185757600080fd5b808484018584013760008482840101525080935050505092959194509250565b60006020828403121561188957600080fd5b813567ffffffffffffffff8111156118a057600080fd5b82016101a08185031215610b5857600080fd5b6000602082840312156118c557600080fd5b813567ffffffffffffffff8111156118dc57600080fd5b82016102008185031215610b5857600080fd5b6000806040838503121561190257600080fd5b61190b836114ea565b9150611919602084016114ea565b90509250929050565b600181811c9082168061193657607f821691505b60208210810361157f57634e487b7160e01b600052602260045260246000fd5b60006020828403121561196857600080fd5b8151610b5881611700565b6000808335601e1984360301811261198a57600080fd5b83018035915067ffffffffffffffff8211156119a557600080fd5b6020019150368190038213156119ba57600080fd5b9250929050565b600080858511156119d157600080fd5b838611156119de57600080fd5b5050820193919092039150565b6001600160e01b03198135818116916004851015611a135780818660040360031b1b83161692505b505092915050565b600080600060608486031215611a3057600080fd5b833592506020840135611a428161143b565b9150604084013567ffffffffffffffff811115611a5e57600080fd5b611a6a8682870161161c565b9150509250925092565b634e487b7160e01b600052603260045260246000fd5b634e487b7160e01b600052601160045260246000fd5b818103818111156104ac576104ac611a8a565b808201808211156104ac576104ac611a8a565b60008351611ad881846020880161146e565b835190830190611aec81836020880161146e565b01949350505050565b634e487b7160e01b600052601260045260246000fd5b6001600160a01b0385811682528416602082015260408101839052608060608201819052600090611b3e90830184611492565b9695505050505050565b600060208284031215611b5a57600080fd5b8151610b588161143b56fea26469706673582212202ca1a91bd5a07f1ae0010f06f0a1bad1535b8a74e058ac6cac30e379e8918f7c64736f6c63430008110033",
    "linkReferences": {}
  },
  "methodIdentifiers": {
    "approve(address,uint256)": "095ea7b3",
    "balanceOf(address)": "70a08231",
    "codeOrigin()": "1d153ca4",
    "didPay((address,uint256,uint256,(address,uint256,uint256,uint256),(address,uint256,uint256,uint256),uint256,address,bool,string,bytes))": "da9ee8b7",
    "didRedeem((address,uint256,uint256,uint256,(address,uint256,uint256,uint256),(address,uint256,uint256,uint256),address,string,bytes))": "2b13c58f",
    "directory()": "c41c2f24",
    "getApproved(uint256)": "081812fc",
    "isApprovedForAll(address,address)": "e985e9c5",
    "name()": "06fdde03",
    "ownerOf(uint256)": "6352211e",
    "payParams((address,address,(address,uint256,uint256,uint256),uint256,uint256,address,uint256,uint256,string,bytes))": "d46cf171",
    "projectId()": "3fafa127",
    "redeemParams((address,address,uint256,uint256,uint256,uint256,uint256,(address,uint256,uint256,uint256),bool,uint256,string,bytes))": "a51cfd18",
    "redemptionWeightOf(uint256[],(address,address,uint256,uint256,uint256,uint256,uint256,(address,uint256,uint256,uint256),bool,uint256,string,bytes))": "7ba62bf9",
    "safeTransferFrom(address,address,uint256)": "42842e0e",
    "safeTransferFrom(address,address,uint256,bytes)": "b88d4fde",
    "setApprovalForAll(address,bool)": "a22cb465",
    "store()": "975057e7",
    "supportsInterface(bytes4)": "01ffc9a7",
    "symbol()": "95d89b41",
    "tokenURI(uint256)": "c87b56dd",
    "totalRedemptionWeight((address,address,uint256,uint256,uint256,uint256,uint256,(address,uint256,uint256,uint256),bool,uint256,string,bytes))": "9494bf72",
    "transferFrom(address,address,uint256)": "23b872dd"
  },
  "id": 75
}