{
  "abi": [
    {
      "inputs": [
        {
          "internalType": "address",
          "name": "",
          "type": "address"
        }
      ],
      "name": "contractUriOf",
      "outputs": [
        {
          "internalType": "string",
          "name": "",
          "type": "string"
        }
      ],
      "stateMutability": "view",
      "type": "function"
    }
  ],
  "bytecode": {
    "object": "0x608060405234801561001057600080fd5b506101e1806100206000396000f3fe608060405234801561001057600080fd5b506004361061002b5760003560e01c8063aab0cd8014610030575b600080fd5b61004361003e3660046100f3565b610059565b6040516100509190610123565b60405180910390f35b6000602081905290815260409020805461007290610171565b80601f016020809104026020016040519081016040528092919081815260200182805461009e90610171565b80156100eb5780601f106100c0576101008083540402835291602001916100eb565b820191906000526020600020905b8154815290600101906020018083116100ce57829003601f168201915b505050505081565b60006020828403121561010557600080fd5b81356001600160a01b038116811461011c57600080fd5b9392505050565b600060208083528351808285015260005b8181101561015057858101830151858201604001528201610134565b506000604082860101526040601f19601f8301168501019250505092915050565b600181811c9082168061018557607f821691505b6020821081036101a557634e487b7160e01b600052602260045260246000fd5b5091905056fea2646970667358221220f067bd839e5a5ff9126696b75b011f6197a0030f6399ca36da1aa60718adbb9b64736f6c63430008110033",
    "linkReferences": {}
  },
  "methodIdentifiers": {
    "contractUriOf(address)": "aab0cd80"
  },
  "id": 76
}